:100000000C9453000C94D8010C947B000C947B004E
:100010000C947B000C947B000C947B000C947B0074
:100020000C947B000C947B000C947B000C947B0064
:100030000C947B000C947B000C947B000C947B0054
:100040000C94FE010C947B000C94EB050C941D06A3
:100050000C947B000C947B000C947B000C947B0034
:100060000C947B000C947B0001020408102040805B
:1000700001020408102001020408102004040404F2
:100080000404040402020202020203030303030342
:1000900000000000250028002B00000000002400C4
:1000A00027002A004D0611241FBECFEFD8E0DEBF87
:1000B000CDBF11E0A0E0B1E0E8EBFDE002C00590AB
:1000C0000D92A632B107D9F721E0A6E2B1E001C056
:1000D0001D92A83EB207E1F710E0C6EAD0E004C0E6
:1000E0002297FE010E94C706C43AD107C9F70E94B1
:1000F000B1040C94DA060C940000239A26E040E048
:1001000052EC61E070E08BE491E00E944E0462E00A
:1001100071E08BE491E00E941B0568EE73E080E0E3
:1001200090E00E946C0261E08BE00E942D0360E091
:1001300087E00E942D03E9E6F0E080818360808300
:10014000E89A78940E94480260933C0170933D01C4
:1001500080933E0190933F0108950F931F93CF9397
:10016000DF93C3E0D0E00E94480200913C0110916F
:100170003D0120913E0130913F01601B710B820BCC
:10018000930B603177428105910508F40CC1809191
:1001900000019091010103979093370180933601FC
:1001A00020913601309137018091340190913501D1
:1001B000409132015091330142305105C4F4281767
:1001C0003907A9F080913201909133010196909303
:1001D00033018093320180913601909137019195DE
:1001E00081959109909337018093360116C0209133
:1001F0003601309137018091340190913501409161
:10020000320150913301423051053CF02817390733
:1002100021F01092330110923201809136019091B9
:100220003701019669F0809136019091370101976D
:1002300039F08091360190913701892B09F093CFE5
:1002400080912C0190912D0190932B0180932A0194
:1002500080912E0190912F0190932D0180932C017C
:10026000809130019091310190932F0180932E0164
:100270008091400190914101909331018093300130
:1002800080912A0190912B0160912C0170912D0198
:1002900040912E0150912F01209130013091310178
:1002A000860F971F840F951F820F931F9595879533
:1002B00095958795AA2797FDA095BA2F809326013B
:1002C00090932701A0932801B0932901A0913601B2
:1002D000B0913701209126013091270140912801EA
:1002E000509129010E94BD069B01AC01A5EEB6E12B
:1002F0000E94B206609338017093390180933A01ED
:1003000090933B0160914001709141014AE050E0BF
:100310008BE491E00E94D00562E171E08BE491E012
:100320000E94FE0460913601709137014AE050E06E
:100330008BE491E00E94D00562E171E08BE491E0F2
:100340000E94FE04409138015091390160913A01B8
:1003500070913B012AE030E08BE491E00E94D805E7
:10036000109241011092400110923801109239010F
:1003700010923A0110923B01D0930101C093000109
:10038000809136019091370190933501809334012B
:100390000E94480260933C0170933D0180933E01AE
:1003A00090933F01E0CEDF91CF911F910F9108957F
:1003B0001F920F920FB60F9211248F939F9389B1C2
:1003C0002B9A87FF03C084E090E002C082E090E0B7
:1003D000909301018093000180914001909141012F
:1003E0000196909341018093400185B115B89F918A
:1003F0008F910F900FBE0F901F9018951F920F9224
:100400000FB60F9211242F933F938F939F93AF9327
:10041000BF938091430190914401A0914501B09117
:1004200046013091420123E0230F2D3768F126E881
:10043000230F0296A11DB11D209342018093430119
:1004400090934401A0934501B093460180914701E8
:1004500090914801A0914901B0914A010196A11DD6
:10046000B11D8093470190934801A0934901B09337
:100470004A01BF91AF919F918F913F912F910F9022
:100480000FBE0F901F9018950196A11DB11DD4CFDE
:100490003FB7F8948091470190914801A09149019C
:1004A000B0914A0126B5A89B05C02F3F19F00196CF
:1004B000A11DB11D3FBF6627782F892F9A2F620F8C
:1004C000711D811D911D660F771F881F991F660F73
:1004D000771F881F991F0895CF92DF92EF92FF92A6
:1004E0000F931F93CF93DF9300D000D0CDB7DEB72B
:1004F0003FB7F894C0904701D0904801E09049017F
:10050000F0904A0126B5A89B07C02F3F29F04FEF76
:10051000C41AD40AE40AF40A3FBFFE2CED2CDC2CEA
:10052000CC24C20ED11CE11CF11CCC0CDD1CEE1C39
:10053000FF1CCC0CDD1CEE1CFF1C86016115710537
:100540008105910509F441C069837A838B839C837B
:100550000E94EA053FB7F894C0904701D090480147
:10056000E0904901F0904A0126B569817A818B813A
:100570009C81A89B07C02F3F29F0EFEFCE1ADE0A1F
:10058000EE0AFE0A3FBFFE2CED2CDC2CCC24C20E62
:10059000D11CE11CF11CCC0CDD1CEE1CFF1CCC0C96
:1005A000DD1CEE1CFF1C9601201B310B283E334046
:1005B00028F2615071098109910908511C4F611598
:1005C00071058105910509F0BFCF0F900F900F9035
:1005D0000F90DF91CF911F910F91FF90EF90DF90DF
:1005E000CF900895789484B5826084BD84B581608D
:1005F00084BD85B5826085BD85B5816085BDEEE62B
:10060000F0E0808181608083E1E8F0E01082808109
:1006100082608083808181608083E0E8F0E0808177
:1006200081608083E1EBF0E0808184608083E0EB97
:10063000F0E0808181608083EAE7F0E0808184607F
:1006400080838081826080838081816080838081DB
:10065000806880831092C1000895CF93DF9390E06B
:10066000FC01E859FF4F2491FC01E458FF4F8491AD
:100670008823B9F090E0880F991FFC01E656FF4FE0
:10068000A591B49180579F4FFC01C591D4919FB71C
:10069000662351F06230A1F0F8948C91822B8C93F8
:1006A0009FBFDF91CF910895F8948C91209582237C
:1006B0008C938881822388839FBFDF91CF91089597
:1006C000F8948C91322F309583238C938881822BE0
:1006D00088839FBFE6CFFC01818D228D90E0805CF6
:1006E0009F4F821B91098F7399270895FC01918D6B
:1006F000828D981731F0828DE80FF11D858D90E085
:1007000008958FEF9FEF0895FC01918D828D9817CA
:1007100061F0828DDF01A80FB11D5D968C91928DE5
:100720009F5F9F73928F90E008958FEF9FEF0895E2
:1007300083E496E0892B49F080E090E0892B29F052
:100740000E94430681110C9400000895FC01848DE1
:10075000DF01A80FB11DA35ABF4F2C91848D90E0EB
:1007600001968F739927848FA689B7892C93A089C6
:10077000B1898C9180648C93938D848D981306C07D
:100780000288F389E02D80818F7D80830895CF9347
:10079000DF93EC01888D8823C9F0EA89FB89808189
:1007A00085FD05C0A889B9898C9186FD0FC00FB65B
:1007B00007FCF5CF808185FFF2CFA889B9898C919C
:1007C00085FFEDCFCE010E94A603E7CFDF91CF9149
:1007D0000895CF92DF92FF920F931F93CF93DF93F1
:1007E0001F92CDB7DEB76C01DC015B969C915B97E5
:1007F0005C968C915C97981307C05096ED91FC9194
:100800005197808185FD32C0F601038D10E00F5FA6
:100810001F4F0F731127F02EF601848DF81211C0AF
:100820000FB607FCF9CFD6015096ED91FC91519788
:10083000808185FFF1CFC60169830E94A60369818B
:10084000EBCF838DE80FF11DE35AFF4F6083D60194
:100850005B960C935B975296ED91FC915397808138
:100860008062808381E058968C930DC0D6015696A5
:10087000ED91FC91579760835096ED91FC915197C3
:1008800080818064808381E090E00F90DF91CF9140
:100890001F910F91FF90DF90CF900895BF92CF925C
:1008A000DF92EF92FF92CF93DF93EC016A017B011D
:1008B000B22EE889F98982E08083411581EE5807DC
:1008C00061057105A1F060E079E08DE390E0A7019A
:1008D00096010E949006215031094109510956950F
:1008E000479537952795211580E1380798F0E889D5
:1008F000F989108260E874E88EE190E0A701960122
:100900000E94900621503109410951095695479599
:1009100037952795EC85FD853083EE85FF8520830F
:10092000188EEC89FD89B082EA89FB89808180611B
:100930008083EA89FB89808188608083EA89FB89DA
:10094000808180688083EA89FB8980818F7D8083B4
:10095000DF91CF91FF90EF90DF90CF90BF900895FF
:1009600008950E94F2020E94B0040E947D00C8E92E
:10097000D3E00E94AD002097E1F30E949803F9CFE5
:10098000CF92DF92EF92FF920F931F93CF93DF935B
:100990006C017A01EB01E60EF71E00E010E0CE15C7
:1009A000DF0561F06991D601ED91FC910190F08134
:1009B000E02DC6010995080F191FF1CFC801DF917D
:1009C000CF911F910F91FF90EF90DF90CF900895FE
:1009D0006115710581F0DB010D900020E9F7AD0193
:1009E00041505109461B570BDC01ED91FC910280EF
:1009F000F381E02D099480E090E008950C94E804E0
:100A0000DC01ED91FC910190F081E02D09940F93B0
:100A10001F93CF93DF93EC016DE00E9400058C01E2
:100A20006AE0CE010E940005800F911FDF91CF91F7
:100A30001F910F9108950F931F93CF93DF93EC01B4
:100A40000E94E8048C01CE010E940705800F911FCF
:100A5000DF91CF911F910F9108958F929F92AF9246
:100A6000BF92CF92DF92EF92FF920F931F93CF939B
:100A7000DF93CDB7DEB7A1970FB6F894DEBF0FBEF8
:100A8000CDBF7C01C42EE52FCB01D22E19A221E0CF
:100A90002D1510F02AE0D22E8E010F5D1F4F8D2CE8
:100AA000912CA12CB12C6C2D7E2FA50194010E94BC
:100AB00090068C2DD29E80191124015011098A3084
:100AC00014F4805D01C0895CF80180832115310533
:100AD0004105510521F0C22EE32FCA01E4CFB80130
:100AE000C7010E94E804A1960FB6F894DEBF0FBEBE
:100AF000CDBFDF91CF911F910F91FF90EF90DF90CD
:100B0000CF90BF90AF909F908F900895CF92DF923B
:100B1000EF92FF920F931F93CF93DF93EC016A0143
:100B20007B012115310579F4E881F9810190F0818B
:100B3000E02D642FDF91CF911F910F91FF90EF90E7
:100B4000DF90CF9009942A303105E9F477FF1AC07D
:100B50006DE20E9400058C0144275527BA014C190B
:100B60005D096E097F092AE0CE010E942D05800FE4
:100B7000911FDF91CF911F910F91FF90EF90DF9028
:100B8000CF9008952AE0B701A601CE01DF91CF9161
:100B90001F910F91FF90EF90DF90CF900C942D0557
:100BA0009A01AB01662757FD6095762F0C94860558
:100BB0000F931F93CF93DF93EC010E9486058C0166
:100BC000CE010E940705800F911FDF91CF911F91E9
:100BD0000F91089508951F920F920FB60F9211244E
:100BE0002F938F939F93EF93FF93E0915B01F0918D
:100BF0005C018081E0916101F091620182FD12C08F
:100C00009081809164018F5F8F73209165018217BD
:100C100051F0E0916401F0E0E55BFE4F958F809329
:100C2000640101C08081FF91EF919F918F912F917D
:100C30000F900FBE0F901F9018951F920F920FB636
:100C40000F9211242F933F934F935F936F937F9352
:100C50008F939F93AF93BF93EF93FF938BE491E0B8
:100C60000E94A603FF91EF91BF91AF919F918F9149
:100C70007F916F915F914F913F912F910F900FBE98
:100C80000F901F9018958BE491E00E946B0321E078
:100C9000892B09F420E0822F089510924E011092C2
:100CA0004D0188EE93E0A0E0B0E080934F01909377
:100CB0005001A0935101B093520189E191E09093CA
:100CC0004C0180934B0185EC90E090935801809308
:100CD000570184EC90E090935A018093590180EC85
:100CE00090E090935C0180935B0181EC90E09093A5
:100CF0005E0180935D0182EC90E0909360018093AF
:100D00005F0186EC90E09093620180936101109204
:100D100064011092650110926601109267010895B6
:100D2000A1E21A2EAA1BBB1BFD010DC0AA1FBB1FEF
:100D3000EE1FFF1FA217B307E407F50720F0A21B61
:100D4000B30BE40BF50B661F771F881F991F1A94CE
:100D500069F760957095809590959B01AC01BD01F8
:100D6000CF0108950E94CB06A59F900DB49F900DD2
:100D7000A49F800D911D11240895B7FF0C94B20615
:100D80000E94B206821B930B0895EE0FFF1F059081
:100D9000F491E02D0994A29FB001B39FC001A39FDD
:100DA000700D811D1124911DB29F700D811D1124A4
:080DB000911D0895F894FFCF96
:100DB8000300526561647920666F7220537065651F
:100DC80064002C200000000000E903C0046B0384C9
:060DD800037603C70300CF
:00000001FF
